:100000000C9456000C9475000C9475000C947500BB
:100010000C9475000C9475000C9475000C9475008C
:100020000C9475000C9475000C9475000C9475007C
:100030000C9475000C94F3000C9475000C947500EE
:100040000C9475000C9475000C9475000C9475005C
:100050000C9475000C9475000C9475000C9475004C
:100060000C9475000C9475000C9475000C9475003C
:100070000C9475000C9475000C9475000C9475002C
:100080000C9475000C9475000C9475009D02A402EC
:10009000AB02B202B902C002C702CE020603EA02F4
:1000A000EE02F202F602FA02FE02020311241FBE61
:1000B000CFEFD0E4DEBFCDBF11E0A0E0B1E0EAEACF
:1000C000F8E000E00BBF02C007900D92A231B1072B
:1000D000D9F721E0A2E1B1E001C01D92A632B2073A
:1000E000E1F70E94B1030C9453040C940000CF93E9
:1000F000DF9300D000D0CDB7DEB769837A838B83DE
:100100009C8389819A81AB81BC818093000190930B
:100110000101A0930201B09303018091000190912D
:100120000101A0910201B09103018093130190930A
:100130001401A0931501B093160100000F900F90C9
:100140000F900F90DF91CF910895CF93DF93CDB7AC
:10015000DEB781E890E02BE0FC01208388E890E0A6
:100160002DE730E0FC01318320838FE690E022E030
:10017000FC01208384E890E0FC01118210828091D0
:10018000000190910101A0910201B09103018093BF
:10019000130190931401A0931501B09316018FE5FC
:1001A00090E02FE530E0F90120812068FC012083F8
:1001B0000000DF91CF910895CF93DF93CDB7DEB7E5
:1001C00081E890E0FC0110820000DF91CF9108955A
:1001D000CF93DF93CDB7DEB781E0809312010000AB
:1001E000DF91CF9108951F920F9200905F000F92C0
:1001F000112400905B000F922F933F934F935F93D6
:100200006F937F938F939F93AF93BF93EF93FF93DE
:10021000CF93DF93CDB7DEB7809113019091140196
:10022000A0911501B09116010197A109B109809320
:10023000130190931401A0931501B09316018091BE
:10024000130190911401A0911501B0911601892B11
:100250008A2B8B2B91F40E94E800809100019091F1
:100260000101A0910201B0910301809313019093C9
:100270001401A0931501B09316010000DF91CF91F6
:10028000FF91EF91BF91AF919F918F917F916F916E
:100290005F914F913F912F910F9000925B000F90D3
:1002A00000925F000F901F901895CF93DF9300D0BE
:1002B0001F92CDB7DEB789837B836A8389818A30B9
:1002C00031F48A819B81BC018DE00E94550180EC54
:1002D00090E0FC018081882F90E080729927892B23
:1002E000B1F386EC90E02981FC01208380E090E06E
:1002F0000F900F900F90DF91CF910895CF93DF93E0
:1003000000D01F92CDB7DEB78B831A82198227C027
:1003100088E290E028E0FC01208388E290E028E277
:1003200030E0F9012081422F2B81222F30E009801B
:1003300002C0359527950A94E2F72170242BFC0121
:10034000208388E290E028E230E0F90120812260F9
:10035000FC01208389819A8101969A83898389810E
:100360009A810897ACF288E290E028E230E0F90147
:1003700020812460FC01208388E290E0FC0110824F
:1003800000000F900F900F90DF91CF910895CF93C1
:10039000DF93CDB7DEB783E290E0FC018081882F48
:1003A00090E08170992721E0892B09F020E0822FCD
:1003B00080931E0183E290E0FC0180818095827031
:1003C00080931B0180911F01909120018230910543
:1003D00009F44AC08330910528F4009759F0019739
:1003E00081F057C08330910509F445C0049709F4A2
:1003F00049C04FC081E090E09093200180931F019D
:1004000048C080911E01882359F080911B018823E8
:1004100039F084E090E09093200180931F0123C085
:1004200080911E01882359F080911B01882339F4A3
:1004300082E090E09093200180931F0114C080918E
:100440001E01882359F480911B01882339F083E031
:1004500090E09093200180931F0105C0109220012D
:1004600010921F0116C015C081E090E0909320010A
:1004700080931F010EC081E090E090932001809353
:100480001F0107C081E090E09093200180931F013D
:10049000000080911F01909120018230910549F068
:1004A0008330910560F18330910569F00497A9F0DC
:1004B00027C080911701909118010196909318011F
:1004C000809317011DC08091170190911801019729
:1004D000909318018093170113C080911901909196
:1004E0001A01019729F410921A011092190108C0FB
:1004F00081E090E090931A018093190101C00000FF
:100500000000DF91CF910895CF93DF93CDB7DEB791
:100510008091230190912401CC01A0E0B0E040E063
:1005200050E027E030E0841B950B28173907E8F1ED
:100530008A5B9F4FFC010C94360481E090E090931D
:1005400024018093230131C082E090E09093240144
:10055000809323012AC083E090E09093240180934C
:10056000230123C084E090E0909324018093230131
:100570001CC085E090E0909324018093230115C076
:1005800086E090E090932401809323010EC087E0E1
:1005900090E0909324018093230107C081E090E0D4
:1005A0009093240180932301000080912301909176
:1005B0002401CC01A0E0B0E040E050E027E030E0D2
:1005C000841B950B2817390710F1825B9F4FFC01A4
:1005D0000C94360481E08093250119C082E0809359
:1005E000250115C084E08093250111C088E0809327
:1005F00025010DC080E18093250109C080E2809330
:10060000250105C080E48093250101C000000000A1
:10061000DF91CF910895CF93DF93CDB7DEB780916F
:100620002101909122018130910569F0813091057D
:1006300018F0029779F015C081E090E090932201C4
:10064000809321010EC082E090E09093220180937C
:10065000210107C081E090E0909322018093210165
:10066000000080912101909122018130910531F0AB
:100670008130910558F0029729F009C080EF8093EE
:10068000250105C08FE08093250101C00000000016
:10069000DF91CF910895CF93DF93CDB7DEB78091EF
:1006A0001C0190911D0182309105E1F0833091058C
:1006B00028F4009749F0019771F029C08330910523
:1006C000C1F00497E9F023C081E090E090931D0110
:1006D00080931C011CC082E090E090931D018093E8
:1006E0001C0115C083E090E090931D0180931C01D4
:1006F0000EC084E090E090931D0180931C0107C020
:1007000081E090E090931D0180931C010000809196
:100710001C0190911D018230910591F0833091056B
:1007200028F40097C9F0019739F017C0833091057C
:1007300059F0049769F011C080EC809325010DC039
:1007400080E38093250109C08CE08093250105C0DA
:1007500083E08093250101C000000000DF91CF916C
:100760000895CF93DF931F92CDB7DEB784E290E078
:10077000FC01108285E290E02FEFFC01208387E2EC
:1007800090E02FEFFC01208388E290E0FC011082D2
:1007900068EC70E080E090E00E9477000E94A50085
:1007A0001092200110921F01109224011092230137
:1007B000109222011092210110921D0110921C0131
:1007C00019820E94C7018091190190911A01019725
:1007D00021F489810E947E012DC0809117019091A2
:1007E000180123E030E0B9010E942204892B19F49A
:1007F0000E9484021BC0809117019091180123E090
:1008000030E0B9010E942204019719F40E940B0301
:100810000DC0809117019091180123E030E0B901DB
:100820000E942204029711F40E944B03809125013B
:100830000E947E010000809112018823E1F3109252
:100840001201BFCF97FB072E16F4009407D077FD57
:1008500009D00E943F0407FC05D03EF49095819595
:100860009F4F0895709561957F4F0895EE0FFF1F7C
:100870000024001C0BBE0790F691E02D0994AA1BE2
:10088000BB1B51E107C0AA1FBB1FA617B70710F07B
:10089000A61BB70B881F991F5A95A9F780959095AD
:0A08A000BC01CD010895F894FFCFCC
:1008AA0001000000000000020000000055010000E5
:0208BA0000003C
:00000001FF
